:100000000C941D040C943A040C943A040C943A0495
:100010000C943A040C943A040C943A040C943A0468
:100020000C943A040C943A040C943A040C943A0458
:100030000C943A040C943A040C943A040C943A0448
:100040000C943A040C943A040C943A040C943A0438
:100050000C943A04E105790624067D065206DB0578
:10006000DE05070C0F0C290C190C290C290C290C86
:10007000290C290C290C290C290C290C290C290CD8
:10008000290C290C290C290C290C290C290C290CC8
:10009000290C290C290C290C290C290C290C010CE0
:1000A000290C290C290C290C290C290C290C290CA8
:1000B000F50B290C290C290C290C290C290C290CCD
:1000C000290C290C290C1F0C240C3B00380035008E
:1000D00032003A00370034003100FFD0FFE0FFC1AA
:1000E000FFD13FC0FF14FFD23FC0FF14FFD0FFFE7F
:1000F00001060A00FE070136026820FFFE08FE071F
:10010000FE0A00602217678080808080008016339E
:1001100063A0A0A00257675050F850F85050025703
:10012000672070A07028702002576748A8502050A0
:10013000A89002576740A0A040A89068261363804B
:10014000808012376720408080804020123767808F
:100150004020202040800355658850F85088035582
:10016000652020F82020113363604080055161F83C
:1001700011336340E0400257670808102040808038
:10018000025767205088888850200257672060A057
:10019000202020F8025767708808304080F8025706
:1001A00067F808103008887002576710305090F8D0
:1001B0001010025767F880B0C8088870025767307F
:1001C0004080B0C88870025767F80810102040407F
:1001D000025767708888708888700257677088989F
:1001E0006808106011376740E0400040E040113778
:1001F0006740E04000604080124767102040804028
:100200002010045363F800F8124767804020102044
:1002100040800257677088102020002002576770C6
:100220008898A8B0807002576720508888F888881E
:10023000025767F04848704848F002576770888056
:1002400080808870025767F04848484848F0025755
:1002500067F88080F08080F8025767F88080F0802F
:1002600080800257677088808098887002576788FE
:100270008888F8888888123767E04040404040E02E
:10028000025767381010101090600257678890A0CE
:10029000C0A09088025767808080808080F80257D5
:1002A000678888D8A88888880257678888C8A898E7
:1002B000888802576770888888888870025767F036
:1002C0008888F08080800158687088888888A87045
:1002D00008025767F08888F0A090880257677088F6
:1002E0008070088870025767F820202020202002A4
:1002F00057678888888888887002576788888850F8
:10030000505020025767888888A8A8D88802576765
:10031000888850205088880257678888502020207D
:1003200020025767F80810204080F8123767E080F5
:1003300080808080E002576780804020100808128B
:100340003767E02020202020E006536320508801FA
:100350005161F828226280400255657008788878DB
:100360000257678080B0C888C8B002556570888021
:100370008870025767080868988898680255657001
:1003800088F88070025767304840F040404000577E
:1003900067788888780888700257678080B0C88836
:1003A00088881237674000C0404040E0104969101B
:1003B000003010101090906002576780808890E0A5
:1003C0009088123767C04040404040E0025565D0F9
:1003D000A8A8A888025565B0C888888802556570A5
:1003E00088888870005767B0C888C8B08080005778
:1003F0006768988898680808025565B0C88080804A
:1004000002556570807008F00257674040F0404028
:1004100048300255658888889868025565888850F4
:1004200050200255658888A8A8500255658850203C
:10043000508800576788889868088870025565F862
:10044000102040F8124767304020C020403022176B
:100450006780808080808080124767C02040304065
:1004600020C006536348A890FFFFFFFFFFFFFFFF78
:10047000FFFFFFFFFFFFFFFFFFFFFFFFFFFFFFFF8C
:10048000FFFFFFFFFFFFFFFFFF0A006022176780EB
:100490000080808080800157672078A0A0A078200D
:1004A000025767304840E04048B0025565887050B8
:1004B000708801586888885020F82020202217670B
:1004C000808080008080800158687080E09048388B
:1004D0000870193161A00257677088A8C8A8887091
:1004E0001346667090B05000F0026565244890484D
:1004F00024144262F010154161F00257677088E8D9
:10050000C8C88870095161F816336340A04002568C
:10051000662020F82020F815456560902040F015F1
:100520004565E0106010E028226240800156668830
:100530008888C8B08002576778E8E86828282825A6
:10054000116180202262408015356540C04040E046
:100550001346666090906000F002656590482448FC
:100560009001696940C04040E40C143C0401696991
:1005700040C04040E81404081C015969C0204020D4
:10058000C818287808025767200020204088700289
:1005900058684020708888F8888802586810207051
:1005A0008888F888880258682050708888F8888879
:1005B00002586848B0708888F888880258685000E7
:1005C000708888F888880258682050708888F88871
:1005D000880267673C50909CF0909C005969708835
:1005E0008080808870204002586840F88080F080C9
:1005F00080F802586810F88080F08080F80258680F
:1006000020F88080F08080F802586850F88080F0F0
:100610008080F81238688040E040404040E0123866
:10062000682040E040404040E012386840A0E04090
:10063000404040E0123868A000E040404040E00206
:100640005767F04848E84848F0025868285088C87A
:10065000A898888802586840207088888888700226
:1006600058681020708888888870025868205070F8
:1006700088888888700258682850708888888870B0
:1006800002586850007088888888700255658850C4
:10069000205088025767709898A8C8C87002586898
:1006A0004020888888888870025868102088888848
:1006B000888870025868205000888888887002589E
:1006C0006850008888888888700258681020888858
:1006D0005020202002576780F088F08080800257E9
:1006E00067708890A09088B0025868402000700819
:1006F0007888780258681020007008788878025846
:100700006820500070087888780258682850007077
:1007100008788878025767500070087888780258FF
:1007200068205020700878887802656578147C907D
:100730007C0057677088808870204002586840208D
:10074000007088F880700258681020007088F88067
:10075000700258682050007088F880700257675007
:10076000007088F88070123868804000C0404040B7
:10077000E0123868408000C0404040E012386840D5
:10078000A000C0404040E0123767A000C040404099
:10079000E0025767C0307088888870025868285017
:1007A00000B0C8888888025868402000708888880F
:1007B000700258681020007088888870025868207D
:1007C00050007088888870025868285000708888A7
:1007D00088700257675000708888887003556520BC
:1007E00000F800200255657898A8C8F002586840C3
:1007F00020008888889868025868102000888888B7
:10080000986802586820500088888898680257675E
:1008100050008888889868005969102088889868EE
:1008200008887000586880F0888888F080800059B7
:100830006950008888986808887011241FBECFE529
:10084000D4E0DEBFCDBF10E0A0E6B0E0E6E8F8E11E
:1008500002C005900D92AC37B107D9F721E0ACE7A3
:10086000B0E001C01D92A333B207E1F70E944B0430
:100870000C94410C0C94000060EF70E08CE790E069
:100880000E949F092EE630E04FE060E08CE790E0A8
:100890000E94130908958FEF8F9382E08F9384E075
:1008A0008F9386E08F9387E08F9393E09F938F934E
:1008B0000F2EF6E08F2EF02D0F2EF5E0AF2EF02D3F
:1008C0006894CC24C2F80F2EF3E0EF2EF02D02E056
:1008D00021E040E060E670E08CE790E00E94AC0A26
:1008E0008DB79EB707960FB6F8949EBF0FBE8DBF0B
:1008F0008CE790E00E94EA0A0E943C048CE790E0BA
:100900000E94F00A8111F8CF84E690E00E94FD0673
:10091000EFCF0F93FC010150040F84A996A99417FF
:1009200038F0081768F481E0041740F080E006C052
:100930000817D0F081E0041708F080E08823C9F0A0
:100940002150260F83A995A9961738F0281770F41F
:1009500081E0261770F080E00CC0281748F081E095
:10096000261738F080E005C080E003C081E001C0B8
:1009700080E00F910895DB011496ED91FC9115979D
:1009800020E030E061E009950895DB011496ED91D7
:10099000FC91159720E030E063E009950895DB01B4
:1009A0001496ED91FC91159720E030E040E064E072
:1009B00009950895DB011496ED91FC91159720E0BF
:1009C00030E041E064E009950895DB011496ED9173
:1009D000FC91159720E030E062E009950895DB0175
:1009E0001496ED91FC91159720E030E065E00995B3
:1009F0000895DB011496ED91FC91159766E0099539
:100A00000895AF92BF92CF92DF92EF92FF920F9331
:100A10001F93CF93DF936C017B018A01D0E0B12C4F
:100A2000AA24A394F801C491D1110BC0CF3F09F4BB
:100A30004AC04C2FB701C6010E94EF04811148C083
:100A40004BC0CF3F51F44FEFB701C6010E94EF04F6
:100A5000882309F441C0DB2D3BC0CE3FE1F1C03F0C
:100A6000A0F5C03E40F04C2F4F70B701C6010E9468
:100A7000E504DB2D2DC0C03D40F04C2F4F70B70179
:100A8000C6010E94C504DB2D23C0C03CA0F0B70105
:100A9000C6010E94CF04C295C07FCE5FD0E0CE01D8
:100AA0000E94FD06B701C6010E94DA04CE010E9431
:100AB000FD06DB2D0DC0CC2354F08C2F90E00E945E
:100AC000FD06DB2D05C0DA2D03C0DB2D01C0DB2DBB
:100AD0000F5F1F4FA7CF81E0DF91CF911F910F9143
:100AE000FF90EF90DF90CF90BF90AF9008950F935D
:100AF0001F93CF938C01C62F462F417065E00E9453
:100B0000F306C6954C2F417066E0C8010E94F306BB
:100B1000C6954C2F417067E0C8010E94F306C69548
:100B20004C2F417068E0C8010E94F306C6954C2F17
:100B3000417069E0C8010E94F306C6954C2F4170D0
:100B40006AE0C8010E94F306C6954C2F41706BE025
:100B5000C8010E94F3064C2F46956CE0C8010E9424
:100B6000F30641E064E0C8010E94F3060E94070713
:100B700040E064E0C8010E94F3060E940C070E9456
:100B80000C07CF911F910F910895CF92DF92EF92B2
:100B9000FF920F931F93CF93DF937C01E901062F00
:100BA00010E0F8013197E730F10508F0A9C0E65DE3
:100BB000FF4F0C94320C411179C0A2C0411188C082
:100BC0009FC06DE00E94EA0640E06DE0C7010E9410
:100BD000F30665E0C7010E94EA0666E0C7010E94CD
:100BE000EA0667E0C7010E94EA0668E0C7010E94C2
:100BF000EA0669E0C7010E94EA066AE0C7010E94AE
:100C0000EA066BE0C7010E94EA066CE0C7010E9499
:100C1000EA0664E0C7010E94EA0662E0C7010E949A
:100C2000EA0663E0C7010E94EA0661E0C7010E948C
:100C3000EA0641E062E0C7010E94F30641E063E09A
:100C4000C7010E94F3065CC041110AC041E062E0A6
:100C50000E94F30641E063E0C7010E94F30650C022
:100C6000413051F440E062E00E94F30641E063E06D
:100C7000C7010E94F30644C0423051F441E062E0F3
:100C80000E94F30640E063E0C7010E94F30638C00B
:100C900040E062E00E94F30640E063E0C7010E948A
:100CA000F3062EC0642F0E9477052AC06E014150C2
:100CB000642F70E06F5F7F4FC60FD71FF601619101
:100CC0006F01C7010E947705CC16DD06B9F718C081
:100CD0004150042F10E00F5F1F4F0C0F1D1FFE012E
:100CE0006491C7010E9477052196C017D107B9F713
:100CF00007C061E00E94F30603C060E00E94F306B3
:100D000081E0DF91CF911F910F91FF90EF90DF90E5
:100D1000CF900895CF93DF9300D0CDB7DEB770E0CA
:100D2000660F771F680F791F42E050E0CE010196F1
:100D30000E94380C89819A810F900F90DF91CF919A
:100D40000895CF93C82F682F66956695669582EDB6
:100D500090E00E948A06FC014081C77021E030E0EB
:100D600002C0220F331FCA95E2F7242B2083CF91B4
:100D70000895CF93DF93C82FD62F682F6695669579
:100D800066958AEC90E00E948A06D11111C04FB797
:100D9000F894FC015081C77021E030E002C0220FBE
:100DA000331FCA95E2F72095252320834FBF0FC03C
:100DB0004FB7F894FC015081C77021E030E002C0C9
:100DC000220F331FCA95E2F7252B20834FBFDF91F7
:100DD000CF910895860F911DFC0183A18F3F11F0E3
:100DE0000E94A1060895860F911DFC0183A18F3FEB
:100DF00019F0642F0E94B9060895009739F02EE982
:100E00003FE0F9013197F1F70197D9F7089584E0B0
:100E100090E00197F1F7089588E290E00197F1F7EB
:100E20000895AF92BF92CF92DF92FF920F931F93DC
:100E3000CF93DF938C01EB01F42E69018AE0481710
:100E400021F0E5E14E1761F05EC04FEFC8010E944E
:100E5000BB044AED50E0BE01C8010E94010553C029
:100E6000AA80BB8040E0C8010E94E50442E0BE01C8
:100E7000C8010E94C504F5014481486BBE01C80148
:100E80000E94EF0440E4BE01C8010E94EF0441E06B
:100E9000BE01C8010E94E504F5012681378140E4C6
:100EA000BE01C8010E94F90440E0BE01C8010E94D1
:100EB000C50440E0BE01C8010E94E50441E0BE0156
:100EC000C8010E94C504F5014481486BBE01C801F8
:100ED0000E94EF0440E4BE01C8010E94EF0441E01B
:100EE000BE01C8010E94E504F50126813781205C1E
:100EF0003F4F40E4BE01C8010E94F90440E0BE013A
:100F0000C8010E94C50496014F2DBE01C8010E9470
:100F1000E30BDF91CF911F910F91FF90DF90CF9066
:100F2000BF90AF900895FC01E60FF11D849190E011
:100F3000982F88273196E4918E0F911D0895FC011A
:100F4000849108950E949F07882321F0823011F038
:100F500083E0089586E0089580E0089566E00E94A9
:100F60009307089568E00E94930708950A96FC018C
:100F7000849108950B96FC0184910895AF92BF92DD
:100F8000CF92DF92EF92FF920F931F93CF93DF9355
:100F90007C01B62EDC011496CD91DC911597CE0123
:100FA0000E949F07182FF701848195810E94A20754
:100FB000D82E113029F40F2EFFE0AF2EF02D02C0F5
:100FC000AA24AA94D70114968D919C9115970E94FA
:100FD000B607182FF701848195810E94BA07082F60
:100FE000D70114968D919C9115970E94B207B0E697
:100FF000BB1530F4009721F0C80FD91F11E60FC0C0
:10100000F701848195810E94AE07F0E4FB1530F46E
:10101000009721F0C80FD91F11E401C061960B158C
:1010200090F4D70150961C92509753961C92539768
:1010300054961C92549751961C92519752961C921A
:1010400080E090E075C0011708F46AC02D2D30E0F3
:101050006E01FE0194919F3F11F421965DC01B111A
:1010600052C08E01D70114968D919C9115970E94C4
:101070009F07882311F08230F1F4F601C490D70164
:101080005396CC925397F8013196E4915496EC9391
:101090005497F8013396E4915096EC935097F801E9
:1010A0003496E4915196EC935197F8013596E4917A
:1010B0005296EC9325C0FE018491982F9F70925018
:1010C000D70152969C935297C82EC694C694C69444
:1010D000C6945196CC925197FE013196E4918E2F91
:1010E0008F7054968C935497E295EF705396EC93CF
:1010F0005397FE013296E491E295EF705096EC938F
:101100008C2F9D2F15C0FE013296E491EA21C90172
:101110008E0F911DC80FD91F101711F01F5F98CFA8
:10112000F701108A138A148A118A128A80E090E0EB
:10113000DF91CF911F910F91FF90EF90DF90CF90B3
:10114000BF90AF9008956F927F928F929F92AF92CF
:10115000BF92CF92DF92EF92FF920F931F93CF93A4
:10116000DF935C01162F642E622F0E94BE076C0174
:10117000892B09F448C0F501848195810E94A2075A
:10118000982EF501D389C4897188710E9289691AE4
:10119000F62CFC1A0C2F2D2F4F2D672DC5010E9408
:1011A0008904811103C0F50180892EC0D95FED2E1D
:1011B000E694E694E694CC2319F1E601C90DD11D1D
:1011C00088248A948E0C912CFFEF8F1A9F0A11C0ED
:1011D000FE01049120E04F2D612FC5010E94000BFC
:1011E0002196185FCC15DD0599F7E601F394F61406
:1011F00039F0EE20D9F36E01C80CD91C172DE8CFB9
:10120000F501808901C080E0DF91CF911F910F919E
:10121000FF90EF90DF90CF90BF90AF909F908F9016
:101220007F906F900895CF92DF92FF920F931F935C
:10123000CF93DF936C01C62FF42E8901DC01559604
:10124000ED91FC9156970995F80EF8012081222323
:1012500081F00F5F1F4FD0E04F2D6C2FC6010E9411
:10126000A308C80FD80FD8012D918D012111F4CFFB
:1012700001C0D0E08D2FDF91CF911F910F91FF9092
:10128000DF90CF900895DC0114968D919C91159775
:10129000009709F44DC057962C91579721110DC016
:1012A000FC013596E4915896EC935897FC013C96D6
:1012B000E4915996EC9359971BC0213069F4FC01D5
:1012C0003F96E4915896EC935897FC017096E49100
:1012D0005996EC9359970CC0FC013D96E4915896B1
:1012E000EC935897FC013E96E4915996EC935997EC
:1012F00058968C915897082E000C990B59962C9162
:101300005997821B910927FD93955A962C915A97CC
:10131000203461F0829FC00111240024880F991F9E
:10132000001C880F991F001C892F902D5B968C93B1
:1013300008952CEA37E0FC01368B258B0895CF9376
:10134000DF93FC01248135812617370749F0EC0132
:10135000758364830E9443098CEA97E09E8B8D8B92
:10136000DF91CF9108951F93CF93DF93EC011D82FE
:101370001C821F821E82198681E0888782E28A870A
:101380001F861E86FE01B3969E012F5C3F4F8FEF96
:101390008193E217F307E1F711E018A3CE010E9451
:1013A00099091F8B188E198E80E48A8F1B8E81E31A
:1013B0009CE09AAB89ABDF91CF911F910895DB013F
:1013C000ED91FC91099508950F931F93CF93DF93AF
:1013D000EC018B01E9A9FAA982E0099520E030E04F
:1013E0004AE0B801CE010E94DF09182FE9A9FAA945
:1013F00083E00995E9A9FAA980E00995812FDF9199
:10140000CF911F910F9108950F931F93CF93DF9367
:10141000EC018B01E9A9FAA982E00995E9A9FAA9E9
:1014200081E0099520E030E044E1B801CE010E945E
:10143000DF099E012D5C3F4F47E1B801CE010E94BC
:10144000DF09E9A9FAA980E00995DF91CF911F9101
:101450000F910895EF92FF921F93CF93DF93EC01CA
:101460007B01E9A9FAA982E00995E9A9FAA981E035
:10147000099520E030E045E1B701CE010E94DF0987
:10148000182F882341F09E012D5C3F4F47E1B701A3
:10149000CE010E94DF09E9A9FAA980E00995812F10
:1014A000DF91CF911F91FF90EF900895CF93DF933D
:1014B0001F92CDB7DEB79E012F5F3F4F46E40E94DB
:1014C000DF0989810F90DF91CF910895CF93DF934A
:1014D0001F92CDB7DEB79E012F5F3F4F47E40E94BA
:1014E000DF0989810F90DF91CF91089520E030E0EE
:1014F00048E40E94DF090895CF93DF93EC016A81ED
:101500007B810E94560A88836A817B81CE010E947A
:10151000660A89836A817B81CE010E94760A8B8765
:101520009E012D5C3F4F6A817B8147E1CE010E9485
:10153000DF09DF91CF910895CF93DF93EC016A81AA
:101540007B810E94E409882321F0CE010E947C0A5D
:1015500081E0DF91CF9108954F925F926F927F92D9
:101560008F92AF92CF92EF92FF920F931F93CF93F0
:10157000DF93CDB7DEB73C012B01F42E122F0E9472
:10158000B309F30153824282F0A611A702A7E3A692
:10159000C4A6A5A686A6888987A7898987A38A89DC
:1015A00085A38B8986A38C8984A38D8980AB8E8942
:1015B00083A3C3010E949C0ADF91CF911F910F91D9
:1015C000FF90EF90CF90AF908F907F906F905F9053
:1015D0004F900895FC01628173810E94040A08956E
:1015E000CF93DF93EC01EE85FF85309709F00995E5
:1015F0006A817B81CE010E942A0ADF91CF910895F2
:101600000F93FC0182819381648F458F278F068F12
:101610009F01245E3F4F4BE3BC01CF010E94DF09D5
:101620000F910895FC01128280818150838314827E
:101630000895FC0190818281890F82832181821724
:1016400060F484818F5F84838381980F921710F0F8
:101650009FEF920F938381E0089580E00895DC016D
:101660001696ED91FC91179715968C919F01280F76
:10167000311DC9011192E817F907E1F70895FC013E
:1016800091E08381861708F490E031E0461708F076
:1016900030E0832F892B21E05281451708F420E0A8
:1016A0002823832F8923822B0895DC01FB011082DC
:1016B00012968C911297818315968C911597815073
:1016C000828313968C9183830895FB01318123815A
:1016D000213019F0233021F006C048E0430F04C048
:1016E000432F385001C0432F632F0E943F0B0895B2
:1016F000DC011696ED91FC91179712968C91481B80
:10170000477081E090E002C0880F991F4A95E2F788
:10171000E60FF11D222321F09081892B808308950B
:1017200080959081892380830895FB014181FC018C
:101730002281421770F02381241758F0FB01308179
:10174000FC012581321728F4FB012481632F0E94BC
:10175000780B0895DF92EF92FF920F931F93CF9330
:10176000DF937C01EB011A818B81813049F028F0F5
:10177000823051F0833059F00EC0D12C01E00DC001
:10178000DD24D39400E009C0D12C0FEF06C0DD2486
:10179000DA9400E002C0D12C00E0112324F4BE0151
:1017A000C7010E94950B9881900F988399819D0D98
:1017B0009983110F91F7DF91CF911F910F91FF90B6
:1017C000EF90DF9008950F931F93CF93DF93FB016A
:1017D000C281D38150E0FA017497E433F105C8F572
:1017E0008901EF5CFF4F0C94320CB901CE010E94CD
:1017F000650B882381F1B801CE010E94AA0B81E01C
:101800002BC0B901CE010E94950B81E025C0CE010D
:101810000E942F0BCE010E94120B81E01DC0CE0151
:101820000E94190B8823C1F0CE010E942F0B81E08A
:1018300013C0B901CE010E94550B81E00DC08D810E
:10184000F901808381E008C08981F901808381E00A
:1018500003C081E001C081E0DF91CF911F910F9122
:1018600008950895EE0FFF1F0590F491E02D09945F
:10187000FB01DC0102C005900D9241505040D8F7A9
:061880000895F894FFCF6B
:1018860011076600C505084000000080B3004865E2
:0C1896006C6C6F20576F726C64210000B6
:00000001FF
